{
  "_format": "hh-sol-artifact-1",
  "contractName": "Example",
  "sourceName": "contracts/SakeTheFirstNFT.sol",
  "abi": [
    {
      "inputs": [
        {
          "internalType": "string",
          "name": "_name",
          "type": "string"
        },
        {
          "internalType": "string",
          "name": "_symbol",
          "type": "string"
        }
      ],
      "stateMutability": "nonpayable",
      "type": "constructor"
    },
    {
      "anonymous": false,
      "inputs": [
        {
          "indexed": true,
          "internalType": "address",
          "name": "owner",
          "type": "address"
        },
        {
          "indexed": true,
          "internalType": "address",
          "name": "approved",
          "type": "address"
        },
        {
          "indexed": true,
          "internalType": "uint256",
          "name": "tokenId",
          "type": "uint256"
        }
      ],
      "name": "Approval",
      "type": "event"
    },
    {
      "anonymous": false,
      "inputs": [
        {
          "indexed": true,
          "internalType": "address",
          "name": "owner",
          "type": "address"
        },
        {
          "indexed": true,
          "internalType": "address",
          "name": "operator",
          "type": "address"
        },
        {
          "indexed": false,
          "internalType": "bool",
          "name": "approved",
          "type": "bool"
        }
      ],
      "name": "ApprovalForAll",
      "type": "event"
    },
    {
      "anonymous": false,
      "inputs": [
        {
          "indexed": true,
          "internalType": "address",
          "name": "previousOwner",
          "type": "address"
        },
        {
          "indexed": true,
          "internalType": "address",
          "name": "newOwner",
          "type": "address"
        }
      ],
      "name": "OwnershipTransferred",
      "type": "event"
    },
    {
      "anonymous": false,
      "inputs": [
        {
          "indexed": true,
          "internalType": "address",
          "name": "from",
          "type": "address"
        },
        {
          "indexed": true,
          "internalType": "address",
          "name": "to",
          "type": "address"
        },
        {
          "indexed": true,
          "internalType": "uint256",
          "name": "tokenId",
          "type": "uint256"
        }
      ],
      "name": "Transfer",
      "type": "event"
    },
    {
      "inputs": [
        {
          "internalType": "address",
          "name": "to",
          "type": "address"
        },
        {
          "internalType": "uint256",
          "name": "tokenId",
          "type": "uint256"
        }
      ],
      "name": "approve",
      "outputs": [],
      "stateMutability": "nonpayable",
      "type": "function"
    },
    {
      "inputs": [
        {
          "internalType": "address",
          "name": "owner",
          "type": "address"
        }
      ],
      "name": "balanceOf",
      "outputs": [
        {
          "internalType": "uint256",
          "name": "",
          "type": "uint256"
        }
      ],
      "stateMutability": "view",
      "type": "function"
    },
    {
      "inputs": [
        {
          "internalType": "uint256",
          "name": "tokenId",
          "type": "uint256"
        }
      ],
      "name": "getApproved",
      "outputs": [
        {
          "internalType": "address",
          "name": "",
          "type": "address"
        }
      ],
      "stateMutability": "view",
      "type": "function"
    },
    {
      "inputs": [
        {
          "internalType": "address",
          "name": "owner",
          "type": "address"
        },
        {
          "internalType": "address",
          "name": "operator",
          "type": "address"
        }
      ],
      "name": "isApprovedForAll",
      "outputs": [
        {
          "internalType": "bool",
          "name": "",
          "type": "bool"
        }
      ],
      "stateMutability": "view",
      "type": "function"
    },
    {
      "inputs": [
        {
          "internalType": "address",
          "name": "_to",
          "type": "address"
        },
        {
          "internalType": "uint256",
          "name": "_tokenId",
          "type": "uint256"
        },
        {
          "internalType": "string",
          "name": "tokenURI_",
          "type": "string"
        }
      ],
      "name": "mint",
      "outputs": [],
      "stateMutability": "nonpayable",
      "type": "function"
    },
    {
      "inputs": [],
      "name": "name",
      "outputs": [
        {
          "internalType": "string",
          "name": "",
          "type": "string"
        }
      ],
      "stateMutability": "view",
      "type": "function"
    },
    {
      "inputs": [],
      "name": "owner",
      "outputs": [
        {
          "internalType": "address",
          "name": "",
          "type": "address"
        }
      ],
      "stateMutability": "view",
      "type": "function"
    },
    {
      "inputs": [
        {
          "internalType": "uint256",
          "name": "tokenId",
          "type": "uint256"
        }
      ],
      "name": "ownerOf",
      "outputs": [
        {
          "internalType": "address",
          "name": "",
          "type": "address"
        }
      ],
      "stateMutability": "view",
      "type": "function"
    },
    {
      "inputs": [],
      "name": "renounceOwnership",
      "outputs": [],
      "stateMutability": "nonpayable",
      "type": "function"
    },
    {
      "inputs": [
        {
          "internalType": "address",
          "name": "from",
          "type": "address"
        },
        {
          "internalType": "address",
          "name": "to",
          "type": "address"
        },
        {
          "internalType": "uint256",
          "name": "tokenId",
          "type": "uint256"
        }
      ],
      "name": "safeTransferFrom",
      "outputs": [],
      "stateMutability": "nonpayable",
      "type": "function"
    },
    {
      "inputs": [
        {
          "internalType": "address",
          "name": "from",
          "type": "address"
        },
        {
          "internalType": "address",
          "name": "to",
          "type": "address"
        },
        {
          "internalType": "uint256",
          "name": "tokenId",
          "type": "uint256"
        },
        {
          "internalType": "bytes",
          "name": "_data",
          "type": "bytes"
        }
      ],
      "name": "safeTransferFrom",
      "outputs": [],
      "stateMutability": "nonpayable",
      "type": "function"
    },
    {
      "inputs": [
        {
          "internalType": "address",
          "name": "operator",
          "type": "address"
        },
        {
          "internalType": "bool",
          "name": "approved",
          "type": "bool"
        }
      ],
      "name": "setApprovalForAll",
      "outputs": [],
      "stateMutability": "nonpayable",
      "type": "function"
    },
    {
      "inputs": [
        {
          "internalType": "string",
          "name": "baseURI_",
          "type": "string"
        }
      ],
      "name": "setBaseURI",
      "outputs": [],
      "stateMutability": "nonpayable",
      "type": "function"
    },
    {
      "inputs": [
        {
          "internalType": "bytes4",
          "name": "interfaceId",
          "type": "bytes4"
        }
      ],
      "name": "supportsInterface",
      "outputs": [
        {
          "internalType": "bool",
          "name": "",
          "type": "bool"
        }
      ],
      "stateMutability": "view",
      "type": "function"
    },
    {
      "inputs": [],
      "name": "symbol",
      "outputs": [
        {
          "internalType": "string",
          "name": "",
          "type": "string"
        }
      ],
      "stateMutability": "view",
      "type": "function"
    },
    {
      "inputs": [
        {
          "internalType": "uint256",
          "name": "tokenId",
          "type": "uint256"
        }
      ],
      "name": "tokenURI",
      "outputs": [
        {
          "internalType": "string",
          "name": "",
          "type": "string"
        }
      ],
      "stateMutability": "view",
      "type": "function"
    },
    {
      "inputs": [
        {
          "internalType": "address",
          "name": "from",
          "type": "address"
        },
        {
          "internalType": "address",
          "name": "to",
          "type": "address"
        },
        {
          "internalType": "uint256",
          "name": "tokenId",
          "type": "uint256"
        }
      ],
      "name": "transferFrom",
      "outputs": [],
      "stateMutability": "nonpayable",
      "type": "function"
    },
    {
      "inputs": [
        {
          "internalType": "address",
          "name": "newOwner",
          "type": "address"
        }
      ],
      "name": "transferOwnership",
      "outputs": [],
      "stateMutability": "nonpayable",
      "type": "function"
    }
  ],
  "bytecode": "0x60806040523480156200001157600080fd5b506040516200332038038062003320833981810160405281019062000037919062000285565b818181600090805190602001906200005192919062000163565b5080600190805190602001906200006a92919062000163565b5050506200008d620000816200009560201b60201c565b6200009d60201b60201c565b505062000429565b600033905090565b6000600660009054906101000a900473ffffffffffffffffffffffffffffffffffffffff16905081600660006101000a81548173ffffffffffffffffffffffffffffffffffffffff021916908373ffffffffffffffffffffffffffffffffffffffff1602179055508173ffffffffffffffffffffffffffffffffffffffff168173ffffffffffffffffffffffffffffffffffffffff167f8be0079c531659141344cd1fd0a4f28419497f9722a3daafe3b4186f6b6457e060405160405180910390a35050565b828054620001719062000395565b90600052602060002090601f016020900481019282620001955760008555620001e1565b82601f10620001b057805160ff1916838001178555620001e1565b82800160010185558215620001e1579182015b82811115620001e0578251825591602001919060010190620001c3565b5b509050620001f09190620001f4565b5090565b5b808211156200020f576000816000905550600101620001f5565b5090565b60006200022a62000224846200032c565b620002f8565b9050828152602081018484840111156200024357600080fd5b620002508482856200035f565b509392505050565b600082601f8301126200026a57600080fd5b81516200027c84826020860162000213565b91505092915050565b600080604083850312156200029957600080fd5b600083015167ffffffffffffffff811115620002b457600080fd5b620002c28582860162000258565b925050602083015167ffffffffffffffff811115620002e057600080fd5b620002ee8582860162000258565b9150509250929050565b6000604051905081810181811067ffffffffffffffff82111715620003225762000321620003fa565b5b8060405250919050565b600067ffffffffffffffff8211156200034a5762000349620003fa565b5b601f19601f8301169050602081019050919050565b60005b838110156200037f57808201518184015260208101905062000362565b838111156200038f576000848401525b50505050565b60006002820490506001821680620003ae57607f821691505b60208210811415620003c557620003c4620003cb565b5b50919050565b7f4e487b7100000000000000000000000000000000000000000000000000000000600052602260045260246000fd5b7f4e487b7100000000000000000000000000000000000000000000000000000000600052604160045260246000fd5b612ee780620004396000396000f3fe608060405234801561001057600080fd5b50600436106101165760003560e01c8063715018a6116100a2578063b88d4fde11610071578063b88d4fde146102cb578063c87b56dd146102e7578063d3fc986414610317578063e985e9c514610333578063f2fde38b1461036357610116565b8063715018a6146102695780638da5cb5b1461027357806395d89b4114610291578063a22cb465146102af57610116565b806323b872dd116100e957806323b872dd146101b557806342842e0e146101d157806355f804b3146101ed5780636352211e1461020957806370a082311461023957610116565b806301ffc9a71461011b57806306fdde031461014b578063081812fc14610169578063095ea7b314610199575b600080fd5b61013560048036038101906101309190611fda565b61037f565b604051610142919061281f565b60405180910390f35b610153610461565b604051610160919061283a565b60405180910390f35b610183600480360381019061017e919061206d565b6104f3565b60405161019091906127b8565b60405180910390f35b6101b360048036038101906101ae9190611f37565b610578565b005b6101cf60048036038101906101ca9190611e31565b610690565b005b6101eb60048036038101906101e69190611e31565b6106f0565b005b6102076004803603810190610202919061202c565b610710565b005b610223600480360381019061021e919061206d565b6107a6565b60405161023091906127b8565b60405180910390f35b610253600480360381019061024e9190611dcc565b610858565b6040516102609190612a7c565b60405180910390f35b610271610910565b005b61027b610998565b60405161028891906127b8565b60405180910390f35b6102996109c2565b6040516102a6919061283a565b60405180910390f35b6102c960048036038101906102c49190611efb565b610a54565b005b6102e560048036038101906102e09190611e80565b610a6a565b005b61030160048036038101906102fc919061206d565b610acc565b60405161030e919061283a565b60405180910390f35b610331600480360381019061032c9190611f73565b610c3f565b005b61034d60048036038101906103489190611df5565b610cd4565b60405161035a919061281f565b60405180910390f35b61037d60048036038101906103789190611dcc565b610d68565b005b60007f80ac58cd000000000000000000000000000000000000000000000000000000007bffffffffffffffffffffffffffffffffffffffffffffffffffffffff1916827bffffffffffffffffffffffffffffffffffffffffffffffffffffffff1916148061044a57507f5b5e139f000000000000000000000000000000000000000000000000000000007bffffffffffffffffffffffffffffffffffffffffffffffffffffffff1916827bffffffffffffffffffffffffffffffffffffffffffffffffffffffff1916145b8061045a575061045982610e60565b5b9050919050565b60606000805461047090612cdc565b80601f016020809104026020016040519081016040528092919081815260200182805461049c90612cdc565b80156104e95780601f106104be576101008083540402835291602001916104e9565b820191906000526020600020905b8154815290600101906020018083116104cc57829003601f168201915b5050505050905090565b60006104fe82610eca565b61053d576040517f08c379a00000000000000000000000000000000000000000000000000000000081526004016105349061299c565b60405180910390fd5b6004600083815260200190815260200160002060009054906101000a900473ffffffffffffffffffffffffffffffffffffffff169050919050565b6000610583826107a6565b90508073ffffffffffffffffffffffffffffffffffffffff168373ffffffffffffffffffffffffffffffffffffffff1614156105f4576040517f08c379a00000000000000000000000000000000000000000000000000000000081526004016105eb90612a3c565b60405180910390fd5b8073ffffffffffffffffffffffffffffffffffffffff16610613610f36565b73ffffffffffffffffffffffffffffffffffffffff16148061064257506106418161063c610f36565b610cd4565b5b610681576040517f08c379a00000000000000000000000000000000000000000000000000000000081526004016106789061291c565b60405180910390fd5b61068b8383610f3e565b505050565b6106a161069b610f36565b82610ff7565b6106e0576040517f08c379a00000000000000000000000000000000000000000000000000000000081526004016106d790612a5c565b60405180910390fd5b6106eb8383836110d5565b505050565b61070b83838360405180602001604052806000815250610a6a565b505050565b610718610f36565b73ffffffffffffffffffffffffffffffffffffffff16610736610998565b73ffffffffffffffffffffffffffffffffffffffff161461078c576040517f08c379a0000000000000000000000000000000000000000000000000000000008152600401610783906129dc565b60405180910390fd5b80600890805190602001906107a2929190611bf0565b5050565b6000806002600084815260200190815260200160002060009054906101000a900473ffffffffffffffffffffffffffffffffffffffff169050600073ffffffffffffffffffffffffffffffffffffffff168173ffffffffffffffffffffffffffffffffffffffff16141561084f576040517f08c379a00000000000000000000000000000000000000000000000000000000081526004016108469061295c565b60405180910390fd5b80915050919050565b60008073ffffffffffffffffffffffffffffffffffffffff168273ffffffffffffffffffffffffffffffffffffffff1614156108c9576040517f08c379a00000000000000000000000000000000000000000000000000000000081526004016108c09061293c565b60405180910390fd5b600360008373ffffffffffffffffffffffffffffffffffffffff1673ffffffffffffffffffffffffffffffffffffffff168152602001908152602001600020549050919050565b610918610f36565b73ffffffffffffffffffffffffffffffffffffffff16610936610998565b73ffffffffffffffffffffffffffffffffffffffff161461098c576040517f08c379a0000000000000000000000000000000000000000000000000000000008152600401610983906129dc565b60405180910390fd5b6109966000611331565b565b6000600660009054906101000a900473ffffffffffffffffffffffffffffffffffffffff16905090565b6060600180546109d190612cdc565b80601f01602080910402602001604051908101604052809291908181526020018280546109fd90612cdc565b8015610a4a5780601f10610a1f57610100808354040283529160200191610a4a565b820191906000526020600020905b815481529060010190602001808311610a2d57829003601f168201915b5050505050905090565b610a66610a5f610f36565b83836113f7565b5050565b610a7b610a75610f36565b83610ff7565b610aba576040517f08c379a0000000000000000000000000000000000000000000000000000000008152600401610ab190612a5c565b60405180910390fd5b610ac684848484611564565b50505050565b6060610ad782610eca565b610b16576040517f08c379a0000000000000000000000000000000000000000000000000000000008152600401610b0d90612a1c565b60405180910390fd5b6000600760008481526020019081526020016000208054610b3690612cdc565b80601f0160208091040260200160405190810160405280929190818152602001828054610b6290612cdc565b8015610baf5780601f10610b8457610100808354040283529160200191610baf565b820191906000526020600020905b815481529060010190602001808311610b9257829003601f168201915b505050505090506000610bc06115c0565b9050600081511415610bd6578192505050610c3a565b600082511115610c0b578082604051602001610bf3929190612794565b60405160208183030381529060405292505050610c3a565b80610c1585611652565b604051602001610c26929190612794565b604051602081830303815290604052925050505b919050565b610c47610f36565b73ffffffffffffffffffffffffffffffffffffffff16610c65610998565b73ffffffffffffffffffffffffffffffffffffffff1614610cbb576040517f08c379a0000000000000000000000000000000000000000000000000000000008152600401610cb2906129dc565b60405180910390fd5b610cc583836117ff565b610ccf82826119cd565b505050565b6000600560008473ffffffffffffffffffffffffffffffffffffffff1673ffffffffffffffffffffffffffffffffffffffff16815260200190815260200160002060008373ffffffffffffffffffffffffffffffffffffffff1673ffffffffffffffffffffffffffffffffffffffff16815260200190815260200160002060009054906101000a900460ff16905092915050565b610d70610f36565b73ffffffffffffffffffffffffffffffffffffffff16610d8e610998565b73ffffffffffffffffffffffffffffffffffffffff1614610de4576040517f08c379a0000000000000000000000000000000000000000000000000000000008152600401610ddb906129dc565b60405180910390fd5b600073ffffffffffffffffffffffffffffffffffffffff168173ffffffffffffffffffffffffffffffffffffffff161415610e54576040517f08c379a0000000000000000000000000000000000000000000000000000000008152600401610e4b9061287c565b60405180910390fd5b610e5d81611331565b50565b60007f01ffc9a7000000000000000000000000000000000000000000000000000000007bffffffffffffffffffffffffffffffffffffffffffffffffffffffff1916827bffffffffffffffffffffffffffffffffffffffffffffffffffffffff1916149050919050565b60008073ffffffffffffffffffffffffffffffffffffffff166002600084815260200190815260200160002060009054906101000a900473ffffffffffffffffffffffffffffffffffffffff1673ffffffffffffffffffffffffffffffffffffffff1614159050919050565b600033905090565b816004600083815260200190815260200160002060006101000a81548173ffffffffffffffffffffffffffffffffffffffff021916908373ffffffffffffffffffffffffffffffffffffffff160217905550808273ffffffffffffffffffffffffffffffffffffffff16610fb1836107a6565b73ffffffffffffffffffffffffffffffffffffffff167f8c5be1e5ebec7d5bd14f71427d1e84f3dd0314c0f7b2291e5b200ac8c7c3b92560405160405180910390a45050565b600061100282610eca565b611041576040517f08c379a0000000000000000000000000000000000000000000000000000000008152600401611038906128fc565b60405180910390fd5b600061104c836107a6565b90508073ffffffffffffffffffffffffffffffffffffffff168473ffffffffffffffffffffffffffffffffffffffff1614806110bb57508373ffffffffffffffffffffffffffffffffffffffff166110a3846104f3565b73ffffffffffffffffffffffffffffffffffffffff16145b806110cc57506110cb8185610cd4565b5b91505092915050565b8273ffffffffffffffffffffffffffffffffffffffff166110f5826107a6565b73ffffffffffffffffffffffffffffffffffffffff161461114b576040517f08c379a0000000000000000000000000000000000000000000000000000000008152600401611142906129fc565b60405180910390fd5b600073ffffffffffffffffffffffffffffffffffffffff168273ffffffffffffffffffffffffffffffffffffffff1614156111bb576040517f08c379a00000000000000000000000000000000000000000000000000000000081526004016111b2906128bc565b60405180910390fd5b6111c6838383611a41565b6111d1600082610f3e565b6001600360008573ffffffffffffffffffffffffffffffffffffffff1673ffffffffffffffffffffffffffffffffffffffff16815260200190815260200160002060008282546112219190612bf2565b925050819055506001600360008473ffffffffffffffffffffffffffffffffffffffff1673ffffffffffffffffffffffffffffffffffffffff16815260200190815260200160002060008282546112789190612b6b565b92505081905550816002600083815260200190815260200160002060006101000a81548173ffffffffffffffffffffffffffffffffffffffff021916908373ffffffffffffffffffffffffffffffffffffffff160217905550808273ffffffffffffffffffffffffffffffffffffffff168473ffffffffffffffffffffffffffffffffffffffff167fddf252ad1be2c89b69c2b068fc378daa952ba7f163c4a11628f55a4df523b3ef60405160405180910390a4505050565b6000600660009054906101000a900473ffffffffffffffffffffffffffffffffffffffff16905081600660006101000a81548173ffffffffffffffffffffffffffffffffffffffff021916908373ffffffffffffffffffffffffffffffffffffffff1602179055508173ffffffffffffffffffffffffffffffffffffffff168173ffffffffffffffffffffffffffffffffffffffff167f8be0079c531659141344cd1fd0a4f28419497f9722a3daafe3b4186f6b6457e060405160405180910390a35050565b8173ffffffffffffffffffffffffffffffffffffffff168373ffffffffffffffffffffffffffffffffffffffff161415611466576040517f08c379a000000000000000000000000000000000000000000000000000000000815260040161145d906128dc565b60405180910390fd5b80600560008573ffffffffffffffffffffffffffffffffffffffff1673ffffffffffffffffffffffffffffffffffffffff16815260200190815260200160002060008473ffffffffffffffffffffffffffffffffffffffff1673ffffffffffffffffffffffffffffffffffffffff16815260200190815260200160002060006101000a81548160ff0219169083151502179055508173ffffffffffffffffffffffffffffffffffffffff168373ffffffffffffffffffffffffffffffffffffffff167f17307eab39ab6107e8899845ad3d59bd9653f200f220920489ca2b5937696c3183604051611557919061281f565b60405180910390a3505050565b61156f8484846110d5565b61157b84848484611a46565b6115ba576040517f08c379a00000000000000000000000000000000000000000000000000000000081526004016115b19061285c565b60405180910390fd5b50505050565b6060600880546115cf90612cdc565b80601f01602080910402602001604051908101604052809291908181526020018280546115fb90612cdc565b80156116485780601f1061161d57610100808354040283529160200191611648565b820191906000526020600020905b81548152906001019060200180831161162b57829003601f168201915b5050505050905090565b6060600082141561169a576040518060400160405280600181526020017f300000000000000000000000000000000000000000000000000000000000000081525090506117fa565b600082905060005b600082146116cc5780806116b590612d0e565b915050600a826116c59190612bc1565b91506116a2565b60008167ffffffffffffffff81111561170e577f4e487b7100000000000000000000000000000000000000000000000000000000600052604160045260246000fd5b6040519080825280601f01601f1916602001820160405280156117405781602001600182028036833780820191505090505b5090505b600085146117f3576001826117599190612bf2565b9150600a856117689190612d57565b60306117749190612b6b565b60f81b8183815181106117b0577f4e487b7100000000000000000000000000000000000000000000000000000000600052603260045260246000fd5b60200101907effffffffffffffffffffffffffffffffffffffffffffffffffffffffffffff1916908160001a905350600a856117ec9190612bc1565b9450611744565b8093505050505b919050565b600073ffffffffffffffffffffffffffffffffffffffff168273ffffffffffffffffffffffffffffffffffffffff16141561186f576040517f08c379a00000000000000000000000000000000000000000000000000000000081526004016118669061297c565b60405180910390fd5b61187881610eca565b156118b8576040517f08c379a00000000000000000000000000000000000000000000000000000000081526004016118af9061289c565b60405180910390fd5b6118c460008383611a41565b6001600360008473ffffffffffffffffffffffffffffffffffffffff1673ffffffffffffffffffffffffffffffffffffffff16815260200190815260200160002060008282546119149190612b6b565b92505081905550816002600083815260200190815260200160002060006101000a81548173ffffffffffffffffffffffffffffffffffffffff021916908373ffffffffffffffffffffffffffffffffffffffff160217905550808273ffffffffffffffffffffffffffffffffffffffff16600073ffffffffffffffffffffffffffffffffffffffff167fddf252ad1be2c89b69c2b068fc378daa952ba7f163c4a11628f55a4df523b3ef60405160405180910390a45050565b6119d682610eca565b611a15576040517f08c379a0000000000000000000000000000000000000000000000000000000008152600401611a0c906129bc565b60405180910390fd5b80600760008481526020019081526020016000209080519060200190611a3c929190611bf0565b505050565b505050565b6000611a678473ffffffffffffffffffffffffffffffffffffffff16611bdd565b15611bd0578373ffffffffffffffffffffffffffffffffffffffff1663150b7a02611a90610f36565b8786866040518563ffffffff1660e01b8152600401611ab294939291906127d3565b602060405180830381600087803b158015611acc57600080fd5b505af1925050508015611afd57506040513d601f19601f82011682018060405250810190611afa9190612003565b60015b611b80573d8060008114611b2d576040519150601f19603f3d011682016040523d82523d6000602084013e611b32565b606091505b50600081511415611b78576040517f08c379a0000000000000000000000000000000000000000000000000000000008152600401611b6f9061285c565b60405180910390fd5b805181602001fd5b63150b7a0260e01b7bffffffffffffffffffffffffffffffffffffffffffffffffffffffff1916817bffffffffffffffffffffffffffffffffffffffffffffffffffffffff191614915050611bd5565b600190505b949350505050565b600080823b905060008111915050919050565b828054611bfc90612cdc565b90600052602060002090601f016020900481019282611c1e5760008555611c65565b82601f10611c3757805160ff1916838001178555611c65565b82800160010185558215611c65579182015b82811115611c64578251825591602001919060010190611c49565b5b509050611c729190611c76565b5090565b5b80821115611c8f576000816000905550600101611c77565b5090565b6000611ca6611ca184612ac8565b612a97565b905082815260208101848484011115611cbe57600080fd5b611cc9848285612c9a565b509392505050565b6000611ce4611cdf84612af8565b612a97565b905082815260208101848484011115611cfc57600080fd5b611d07848285612c9a565b509392505050565b600081359050611d1e81612e55565b92915050565b600081359050611d3381612e6c565b92915050565b600081359050611d4881612e83565b92915050565b600081519050611d5d81612e83565b92915050565b600082601f830112611d7457600080fd5b8135611d84848260208601611c93565b91505092915050565b600082601f830112611d9e57600080fd5b8135611dae848260208601611cd1565b91505092915050565b600081359050611dc681612e9a565b92915050565b600060208284031215611dde57600080fd5b6000611dec84828501611d0f565b91505092915050565b60008060408385031215611e0857600080fd5b6000611e1685828601611d0f565b9250506020611e2785828601611d0f565b9150509250929050565b600080600060608486031215611e4657600080fd5b6000611e5486828701611d0f565b9350506020611e6586828701611d0f565b9250506040611e7686828701611db7565b9150509250925092565b60008060008060808587031215611e9657600080fd5b6000611ea487828801611d0f565b9450506020611eb587828801611d0f565b9350506040611ec687828801611db7565b925050606085013567ffffffffffffffff811115611ee357600080fd5b611eef87828801611d63565b91505092959194509250565b60008060408385031215611f0e57600080fd5b6000611f1c85828601611d0f565b9250506020611f2d85828601611d24565b9150509250929050565b60008060408385031215611f4a57600080fd5b6000611f5885828601611d0f565b9250506020611f6985828601611db7565b9150509250929050565b600080600060608486031215611f8857600080fd5b6000611f9686828701611d0f565b9350506020611fa786828701611db7565b925050604084013567ffffffffffffffff811115611fc457600080fd5b611fd086828701611d8d565b9150509250925092565b600060208284031215611fec57600080fd5b6000611ffa84828501611d39565b91505092915050565b60006020828403121561201557600080fd5b600061202384828501611d4e565b91505092915050565b60006020828403121561203e57600080fd5b600082013567ffffffffffffffff81111561205857600080fd5b61206484828501611d8d565b91505092915050565b60006020828403121561207f57600080fd5b600061208d84828501611db7565b91505092915050565b61209f81612c26565b82525050565b6120ae81612c38565b82525050565b60006120bf82612b28565b6120c98185612b3e565b93506120d9818560208601612ca9565b6120e281612e44565b840191505092915050565b60006120f882612b33565b6121028185612b4f565b9350612112818560208601612ca9565b61211b81612e44565b840191505092915050565b600061213182612b33565b61213b8185612b60565b935061214b818560208601612ca9565b80840191505092915050565b6000612164603283612b4f565b91507f4552433732313a207472616e7366657220746f206e6f6e20455243373231526560008301527f63656976657220696d706c656d656e74657200000000000000000000000000006020830152604082019050919050565b60006121ca602683612b4f565b91507f4f776e61626c653a206e6577206f776e657220697320746865207a65726f206160008301527f64647265737300000000000000000000000000000000000000000000000000006020830152604082019050919050565b6000612230601c83612b4f565b91507f4552433732313a20746f6b656e20616c7265616479206d696e746564000000006000830152602082019050919050565b6000612270602483612b4f565b91507f4552433732313a207472616e7366657220746f20746865207a65726f2061646460008301527f72657373000000000000000000000000000000000000000000000000000000006020830152604082019050919050565b60006122d6601983612b4f565b91507f4552433732313a20617070726f766520746f2063616c6c6572000000000000006000830152602082019050919050565b6000612316602c83612b4f565b91507f4552433732313a206f70657261746f7220717565727920666f72206e6f6e657860008301527f697374656e7420746f6b656e00000000000000000000000000000000000000006020830152604082019050919050565b600061237c603883612b4f565b91507f4552433732313a20617070726f76652063616c6c6572206973206e6f74206f7760008301527f6e6572206e6f7220617070726f76656420666f7220616c6c00000000000000006020830152604082019050919050565b60006123e2602a83612b4f565b91507f4552433732313a2062616c616e636520717565727920666f7220746865207a6560008301527f726f2061646472657373000000000000000000000000000000000000000000006020830152604082019050919050565b6000612448602983612b4f565b91507f4552433732313a206f776e657220717565727920666f72206e6f6e657869737460008301527f656e7420746f6b656e00000000000000000000000000000000000000000000006020830152604082019050919050565b60006124ae602083612b4f565b91507f4552433732313a206d696e7420746f20746865207a65726f20616464726573736000830152602082019050919050565b60006124ee602c83612b4f565b91507f4552433732313a20617070726f76656420717565727920666f72206e6f6e657860008301527f697374656e7420746f6b656e00000000000000000000000000000000000000006020830152604082019050919050565b6000612554602c83612b4f565b91507f4552433732314d657461646174613a2055524920736574206f66206e6f6e657860008301527f697374656e7420746f6b656e00000000000000000000000000000000000000006020830152604082019050919050565b60006125ba602083612b4f565b91507f4f776e61626c653a2063616c6c6572206973206e6f7420746865206f776e65726000830152602082019050919050565b60006125fa602983612b4f565b91507f4552433732313a207472616e73666572206f6620746f6b656e2074686174206960008301527f73206e6f74206f776e00000000000000000000000000000000000000000000006020830152604082019050919050565b6000612660602f83612b4f565b91507f4552433732314d657461646174613a2055524920717565727920666f72206e6f60008301527f6e6578697374656e7420746f6b656e00000000000000000000000000000000006020830152604082019050919050565b60006126c6602183612b4f565b91507f4552433732313a20617070726f76616c20746f2063757272656e74206f776e6560008301527f72000000000000000000000000000000000000000000000000000000000000006020830152604082019050919050565b600061272c603183612b4f565b91507f4552433732313a207472616e736665722063616c6c6572206973206e6f74206f60008301527f776e6572206e6f7220617070726f7665640000000000000000000000000000006020830152604082019050919050565b61278e81612c90565b82525050565b60006127a08285612126565b91506127ac8284612126565b91508190509392505050565b60006020820190506127cd6000830184612096565b92915050565b60006080820190506127e86000830187612096565b6127f56020830186612096565b6128026040830185612785565b818103606083015261281481846120b4565b905095945050505050565b600060208201905061283460008301846120a5565b92915050565b6000602082019050818103600083015261285481846120ed565b905092915050565b6000602082019050818103600083015261287581612157565b9050919050565b60006020820190508181036000830152612895816121bd565b9050919050565b600060208201905081810360008301526128b581612223565b9050919050565b600060208201905081810360008301526128d581612263565b9050919050565b600060208201905081810360008301526128f5816122c9565b9050919050565b6000602082019050818103600083015261291581612309565b9050919050565b600060208201905081810360008301526129358161236f565b9050919050565b60006020820190508181036000830152612955816123d5565b9050919050565b600060208201905081810360008301526129758161243b565b9050919050565b60006020820190508181036000830152612995816124a1565b9050919050565b600060208201905081810360008301526129b5816124e1565b9050919050565b600060208201905081810360008301526129d581612547565b9050919050565b600060208201905081810360008301526129f5816125ad565b9050919050565b60006020820190508181036000830152612a15816125ed565b9050919050565b60006020820190508181036000830152612a3581612653565b9050919050565b60006020820190508181036000830152612a55816126b9565b9050919050565b60006020820190508181036000830152612a758161271f565b9050919050565b6000602082019050612a916000830184612785565b92915050565b6000604051905081810181811067ffffffffffffffff82111715612abe57612abd612e15565b5b8060405250919050565b600067ffffffffffffffff821115612ae357612ae2612e15565b5b601f19601f8301169050602081019050919050565b600067ffffffffffffffff821115612b1357612b12612e15565b5b601f19601f8301169050602081019050919050565b600081519050919050565b600081519050919050565b600082825260208201905092915050565b600082825260208201905092915050565b600081905092915050565b6000612b7682612c90565b9150612b8183612c90565b9250827fffffffffffffffffffffffffffffffffffffffffffffffffffffffffffffffff03821115612bb657612bb5612d88565b5b828201905092915050565b6000612bcc82612c90565b9150612bd783612c90565b925082612be757612be6612db7565b5b828204905092915050565b6000612bfd82612c90565b9150612c0883612c90565b925082821015612c1b57612c1a612d88565b5b828203905092915050565b6000612c3182612c70565b9050919050565b60008115159050919050565b60007fffffffff0000000000000000000000000000000000000000000000000000000082169050919050565b600073ffffffffffffffffffffffffffffffffffffffff82169050919050565b6000819050919050565b82818337600083830152505050565b60005b83811015612cc7578082015181840152602081019050612cac565b83811115612cd6576000848401525b50505050565b60006002820490506001821680612cf457607f821691505b60208210811415612d0857612d07612de6565b5b50919050565b6000612d1982612c90565b91507fffffffffffffffffffffffffffffffffffffffffffffffffffffffffffffffff821415612d4c57612d4b612d88565b5b600182019050919050565b6000612d6282612c90565b9150612d6d83612c90565b925082612d7d57612d7c612db7565b5b828206905092915050565b7f4e487b7100000000000000000000000000000000000000000000000000000000600052601160045260246000fd5b7f4e487b7100000000000000000000000000000000000000000000000000000000600052601260045260246000fd5b7f4e487b7100000000000000000000000000000000000000000000000000000000600052602260045260246000fd5b7f4e487b7100000000000000000000000000000000000000000000000000000000600052604160045260246000fd5b6000601f19601f8301169050919050565b612e5e81612c26565b8114612e6957600080fd5b50565b612e7581612c38565b8114612e8057600080fd5b50565b612e8c81612c44565b8114612e9757600080fd5b50565b612ea381612c90565b8114612eae57600080fd5b5056fea2646970667358221220fd006a1b65edc39e89a62efb9b317e8f03fe2e05347b8f70d8f3c698c8f9479e64736f6c63430008000033",
  "linkReferences": {},
  "deployedLinkReferences": {}
}